{
  "contractName": "JewellFactory",
  "abi": [
    {
      "inputs": [],
      "stateMutability": "nonpayable",
      "type": "constructor"
    },
    {
      "anonymous": false,
      "inputs": [
        {
          "indexed": true,
          "internalType": "address",
          "name": "owner",
          "type": "address"
        },
        {
          "indexed": true,
          "internalType": "address",
          "name": "approved",
          "type": "address"
        },
        {
          "indexed": true,
          "internalType": "uint256",
          "name": "tokenId",
          "type": "uint256"
        }
      ],
      "name": "Approval",
      "type": "event"
    },
    {
      "anonymous": false,
      "inputs": [
        {
          "indexed": true,
          "internalType": "address",
          "name": "owner",
          "type": "address"
        },
        {
          "indexed": true,
          "internalType": "address",
          "name": "operator",
          "type": "address"
        },
        {
          "indexed": false,
          "internalType": "bool",
          "name": "approved",
          "type": "bool"
        }
      ],
      "name": "ApprovalForAll",
      "type": "event"
    },
    {
      "anonymous": false,
      "inputs": [
        {
          "indexed": false,
          "internalType": "address",
          "name": "_seller",
          "type": "address"
        },
        {
          "indexed": false,
          "internalType": "address",
          "name": "_buyer",
          "type": "address"
        },
        {
          "indexed": false,
          "internalType": "uint256",
          "name": "_price",
          "type": "uint256"
        }
      ],
      "name": "BuyJewell",
      "type": "event"
    },
    {
      "anonymous": false,
      "inputs": [
        {
          "indexed": true,
          "internalType": "address",
          "name": "owner",
          "type": "address"
        },
        {
          "indexed": false,
          "internalType": "uint256",
          "name": "id",
          "type": "uint256"
        },
        {
          "indexed": false,
          "internalType": "string",
          "name": "location",
          "type": "string"
        }
      ],
      "name": "NewJewell",
      "type": "event"
    },
    {
      "anonymous": false,
      "inputs": [
        {
          "indexed": true,
          "internalType": "address",
          "name": "previousOwner",
          "type": "address"
        },
        {
          "indexed": true,
          "internalType": "address",
          "name": "newOwner",
          "type": "address"
        }
      ],
      "name": "OwnershipTransferred",
      "type": "event"
    },
    {
      "anonymous": false,
      "inputs": [
        {
          "indexed": true,
          "internalType": "address",
          "name": "from",
          "type": "address"
        },
        {
          "indexed": true,
          "internalType": "address",
          "name": "to",
          "type": "address"
        },
        {
          "indexed": true,
          "internalType": "uint256",
          "name": "tokenId",
          "type": "uint256"
        }
      ],
      "name": "Transfer",
      "type": "event"
    },
    {
      "inputs": [],
      "name": "admin",
      "outputs": [
        {
          "internalType": "address",
          "name": "",
          "type": "address"
        }
      ],
      "stateMutability": "view",
      "type": "function",
      "constant": true
    },
    {
      "inputs": [
        {
          "internalType": "address",
          "name": "to",
          "type": "address"
        },
        {
          "internalType": "uint256",
          "name": "tokenId",
          "type": "uint256"
        }
      ],
      "name": "approve",
      "outputs": [],
      "stateMutability": "nonpayable",
      "type": "function"
    },
    {
      "inputs": [
        {
          "internalType": "address",
          "name": "owner",
          "type": "address"
        }
      ],
      "name": "balanceOf",
      "outputs": [
        {
          "internalType": "uint256",
          "name": "",
          "type": "uint256"
        }
      ],
      "stateMutability": "view",
      "type": "function",
      "constant": true
    },
    {
      "inputs": [
        {
          "internalType": "uint256",
          "name": "",
          "type": "uint256"
        }
      ],
      "name": "cooldowns",
      "outputs": [
        {
          "internalType": "uint32",
          "name": "",
          "type": "uint32"
        }
      ],
      "stateMutability": "view",
      "type": "function",
      "constant": true
    },
    {
      "inputs": [
        {
          "internalType": "uint256",
          "name": "tokenId",
          "type": "uint256"
        }
      ],
      "name": "getApproved",
      "outputs": [
        {
          "internalType": "address",
          "name": "",
          "type": "address"
        }
      ],
      "stateMutability": "view",
      "type": "function",
      "constant": true
    },
    {
      "inputs": [
        {
          "internalType": "address",
          "name": "owner",
          "type": "address"
        },
        {
          "internalType": "address",
          "name": "operator",
          "type": "address"
        }
      ],
      "name": "isApprovedForAll",
      "outputs": [
        {
          "internalType": "bool",
          "name": "",
          "type": "bool"
        }
      ],
      "stateMutability": "view",
      "type": "function",
      "constant": true
    },
    {
      "inputs": [
        {
          "internalType": "uint256",
          "name": "",
          "type": "uint256"
        }
      ],
      "name": "jewells",
      "outputs": [
        {
          "internalType": "string",
          "name": "name",
          "type": "string"
        },
        {
          "internalType": "uint256",
          "name": "id",
          "type": "uint256"
        },
        {
          "internalType": "string",
          "name": "location",
          "type": "string"
        },
        {
          "internalType": "uint8",
          "name": "rarity",
          "type": "uint8"
        },
        {
          "internalType": "uint8",
          "name": "gemslv",
          "type": "uint8"
        },
        {
          "internalType": "address",
          "name": "currentOwner",
          "type": "address"
        },
        {
          "internalType": "address",
          "name": "firstOwner",
          "type": "address"
        },
        {
          "internalType": "uint8",
          "name": "rawId",
          "type": "uint8"
        },
        {
          "internalType": "uint8",
          "name": "gemId",
          "type": "uint8"
        },
        {
          "internalType": "uint256",
          "name": "sell",
          "type": "uint256"
        },
        {
          "internalType": "uint32",
          "name": "sellTime",
          "type": "uint32"
        },
        {
          "internalType": "uint256",
          "name": "gen0",
          "type": "uint256"
        }
      ],
      "stateMutability": "view",
      "type": "function",
      "constant": true
    },
    {
      "inputs": [],
      "name": "name",
      "outputs": [
        {
          "internalType": "string",
          "name": "",
          "type": "string"
        }
      ],
      "stateMutability": "view",
      "type": "function",
      "constant": true
    },
    {
      "inputs": [],
      "name": "owner",
      "outputs": [
        {
          "internalType": "address",
          "name": "",
          "type": "address"
        }
      ],
      "stateMutability": "view",
      "type": "function",
      "constant": true
    },
    {
      "inputs": [
        {
          "internalType": "uint256",
          "name": "tokenId",
          "type": "uint256"
        }
      ],
      "name": "ownerOf",
      "outputs": [
        {
          "internalType": "address",
          "name": "",
          "type": "address"
        }
      ],
      "stateMutability": "view",
      "type": "function",
      "constant": true
    },
    {
      "inputs": [],
      "name": "renounceOwnership",
      "outputs": [],
      "stateMutability": "nonpayable",
      "type": "function"
    },
    {
      "inputs": [
        {
          "internalType": "address",
          "name": "from",
          "type": "address"
        },
        {
          "internalType": "address",
          "name": "to",
          "type": "address"
        },
        {
          "internalType": "uint256",
          "name": "tokenId",
          "type": "uint256"
        }
      ],
      "name": "safeTransferFrom",
      "outputs": [],
      "stateMutability": "nonpayable",
      "type": "function"
    },
    {
      "inputs": [
        {
          "internalType": "address",
          "name": "from",
          "type": "address"
        },
        {
          "internalType": "address",
          "name": "to",
          "type": "address"
        },
        {
          "internalType": "uint256",
          "name": "tokenId",
          "type": "uint256"
        },
        {
          "internalType": "bytes",
          "name": "data",
          "type": "bytes"
        }
      ],
      "name": "safeTransferFrom",
      "outputs": [],
      "stateMutability": "nonpayable",
      "type": "function"
    },
    {
      "inputs": [
        {
          "internalType": "address",
          "name": "operator",
          "type": "address"
        },
        {
          "internalType": "bool",
          "name": "approved",
          "type": "bool"
        }
      ],
      "name": "setApprovalForAll",
      "outputs": [],
      "stateMutability": "nonpayable",
      "type": "function"
    },
    {
      "inputs": [
        {
          "internalType": "bytes4",
          "name": "interfaceId",
          "type": "bytes4"
        }
      ],
      "name": "supportsInterface",
      "outputs": [
        {
          "internalType": "bool",
          "name": "",
          "type": "bool"
        }
      ],
      "stateMutability": "view",
      "type": "function",
      "constant": true
    },
    {
      "inputs": [],
      "name": "symbol",
      "outputs": [
        {
          "internalType": "string",
          "name": "",
          "type": "string"
        }
      ],
      "stateMutability": "view",
      "type": "function",
      "constant": true
    },
    {
      "inputs": [
        {
          "internalType": "uint256",
          "name": "",
          "type": "uint256"
        }
      ],
      "name": "tokenIdToPrice",
      "outputs": [
        {
          "internalType": "uint256",
          "name": "",
          "type": "uint256"
        }
      ],
      "stateMutability": "view",
      "type": "function",
      "constant": true
    },
    {
      "inputs": [
        {
          "internalType": "uint256",
          "name": "tokenId",
          "type": "uint256"
        }
      ],
      "name": "tokenURI",
      "outputs": [
        {
          "internalType": "string",
          "name": "",
          "type": "string"
        }
      ],
      "stateMutability": "view",
      "type": "function",
      "constant": true
    },
    {
      "inputs": [
        {
          "internalType": "address",
          "name": "from",
          "type": "address"
        },
        {
          "internalType": "address",
          "name": "to",
          "type": "address"
        },
        {
          "internalType": "uint256",
          "name": "tokenId",
          "type": "uint256"
        }
      ],
      "name": "transferFrom",
      "outputs": [],
      "stateMutability": "nonpayable",
      "type": "function"
    },
    {
      "inputs": [
        {
          "internalType": "address",
          "name": "newOwner",
          "type": "address"
        }
      ],
      "name": "transferOwnership",
      "outputs": [],
      "stateMutability": "nonpayable",
      "type": "function"
    },
    {
      "inputs": [],
      "name": "getFee",
      "outputs": [
        {
          "internalType": "uint256",
          "name": "",
          "type": "uint256"
        }
      ],
      "stateMutability": "view",
      "type": "function",
      "constant": true
    },
    {
      "inputs": [],
      "name": "getFeeForge",
      "outputs": [
        {
          "internalType": "uint256",
          "name": "",
          "type": "uint256"
        }
      ],
      "stateMutability": "view",
      "type": "function",
      "constant": true
    },
    {
      "inputs": [],
      "name": "getFeeSell",
      "outputs": [
        {
          "internalType": "uint256",
          "name": "",
          "type": "uint256"
        }
      ],
      "stateMutability": "view",
      "type": "function",
      "constant": true
    },
    {
      "inputs": [
        {
          "internalType": "string",
          "name": "_location",
          "type": "string"
        }
      ],
      "name": "createRandomJewellFree",
      "outputs": [],
      "stateMutability": "nonpayable",
      "type": "function"
    },
    {
      "inputs": [
        {
          "internalType": "string",
          "name": "_location",
          "type": "string"
        }
      ],
      "name": "createRandomJewell",
      "outputs": [],
      "stateMutability": "payable",
      "type": "function",
      "payable": true
    },
    {
      "inputs": [],
      "name": "getJewell",
      "outputs": [
        {
          "components": [
            {
              "internalType": "string",
              "name": "name",
              "type": "string"
            },
            {
              "internalType": "uint256",
              "name": "id",
              "type": "uint256"
            },
            {
              "internalType": "string",
              "name": "location",
              "type": "string"
            },
            {
              "internalType": "uint8",
              "name": "rarity",
              "type": "uint8"
            },
            {
              "internalType": "uint8",
              "name": "gemslv",
              "type": "uint8"
            },
            {
              "internalType": "address",
              "name": "currentOwner",
              "type": "address"
            },
            {
              "internalType": "address",
              "name": "firstOwner",
              "type": "address"
            },
            {
              "internalType": "uint8",
              "name": "rawId",
              "type": "uint8"
            },
            {
              "internalType": "uint8",
              "name": "gemId",
              "type": "uint8"
            },
            {
              "internalType": "uint256",
              "name": "sell",
              "type": "uint256"
            },
            {
              "internalType": "uint32",
              "name": "sellTime",
              "type": "uint32"
            },
            {
              "internalType": "uint256",
              "name": "gen0",
              "type": "uint256"
            }
          ],
          "internalType": "struct JewellFactory.Jewell[]",
          "name": "",
          "type": "tuple[]"
        }
      ],
      "stateMutability": "view",
      "type": "function",
      "constant": true
    },
    {
      "inputs": [
        {
          "internalType": "address",
          "name": "_owner",
          "type": "address"
        }
      ],
      "name": "getOwnerJewells",
      "outputs": [
        {
          "components": [
            {
              "internalType": "string",
              "name": "name",
              "type": "string"
            },
            {
              "internalType": "uint256",
              "name": "id",
              "type": "uint256"
            },
            {
              "internalType": "string",
              "name": "location",
              "type": "string"
            },
            {
              "internalType": "uint8",
              "name": "rarity",
              "type": "uint8"
            },
            {
              "internalType": "uint8",
              "name": "gemslv",
              "type": "uint8"
            },
            {
              "internalType": "address",
              "name": "currentOwner",
              "type": "address"
            },
            {
              "internalType": "address",
              "name": "firstOwner",
              "type": "address"
            },
            {
              "internalType": "uint8",
              "name": "rawId",
              "type": "uint8"
            },
            {
              "internalType": "uint8",
              "name": "gemId",
              "type": "uint8"
            },
            {
              "internalType": "uint256",
              "name": "sell",
              "type": "uint256"
            },
            {
              "internalType": "uint32",
              "name": "sellTime",
              "type": "uint32"
            },
            {
              "internalType": "uint256",
              "name": "gen0",
              "type": "uint256"
            }
          ],
          "internalType": "struct JewellFactory.Jewell[]",
          "name": "",
          "type": "tuple[]"
        }
      ],
      "stateMutability": "view",
      "type": "function",
      "constant": true
    },
    {
      "inputs": [
        {
          "internalType": "uint256",
          "name": "_fee",
          "type": "uint256"
        }
      ],
      "name": "updateFee",
      "outputs": [],
      "stateMutability": "nonpayable",
      "type": "function"
    },
    {
      "inputs": [
        {
          "internalType": "uint256",
          "name": "_FeeForge",
          "type": "uint256"
        }
      ],
      "name": "updateFeeForge",
      "outputs": [],
      "stateMutability": "nonpayable",
      "type": "function"
    },
    {
      "inputs": [
        {
          "internalType": "uint256",
          "name": "_feeSell",
          "type": "uint256"
        }
      ],
      "name": "updateFeeSell",
      "outputs": [],
      "stateMutability": "nonpayable",
      "type": "function"
    },
    {
      "inputs": [],
      "name": "withdraw",
      "outputs": [],
      "stateMutability": "payable",
      "type": "function",
      "payable": true
    },
    {
      "inputs": [
        {
          "internalType": "uint256",
          "name": "_JewellId",
          "type": "uint256"
        },
        {
          "internalType": "string",
          "name": "_newName",
          "type": "string"
        }
      ],
      "name": "updateName",
      "outputs": [],
      "stateMutability": "nonpayable",
      "type": "function"
    },
    {
      "inputs": [
        {
          "internalType": "uint256",
          "name": "_rawID",
          "type": "uint256"
        },
        {
          "internalType": "uint256",
          "name": "_gemID",
          "type": "uint256"
        },
        {
          "internalType": "string",
          "name": "_location",
          "type": "string"
        }
      ],
      "name": "Forging",
      "outputs": [],
      "stateMutability": "payable",
      "type": "function",
      "payable": true
    },
    {
      "inputs": [
        {
          "internalType": "address",
          "name": "_from",
          "type": "address"
        },
        {
          "internalType": "address",
          "name": "_to",
          "type": "address"
        },
        {
          "internalType": "uint256",
          "name": "_tokenId",
          "type": "uint256"
        }
      ],
      "name": "GiftToken",
      "outputs": [],
      "stateMutability": "nonpayable",
      "type": "function"
    },
    {
      "inputs": [
        {
          "internalType": "uint256",
          "name": "_tokenId",
          "type": "uint256"
        },
        {
          "internalType": "uint256",
          "name": "_price",
          "type": "uint256"
        }
      ],
      "name": "allowBuy",
      "outputs": [],
      "stateMutability": "payable",
      "type": "function",
      "payable": true
    },
    {
      "inputs": [
        {
          "internalType": "uint256",
          "name": "_tokenId",
          "type": "uint256"
        }
      ],
      "name": "disallowBuy",
      "outputs": [],
      "stateMutability": "nonpayable",
      "type": "function"
    },
    {
      "inputs": [
        {
          "internalType": "uint256",
          "name": "_tokenId",
          "type": "uint256"
        }
      ],
      "name": "buy",
      "outputs": [],
      "stateMutability": "payable",
      "type": "function",
      "payable": true
    },
    {
      "inputs": [
        {
          "internalType": "uint256",
          "name": "_tokenId",
          "type": "uint256"
        },
        {
          "internalType": "uint256",
          "name": "_newPrice",
          "type": "uint256"
        }
      ],
      "name": "changePrice",
      "outputs": [],
      "stateMutability": "nonpayable",
      "type": "function"
    },
    {
      "inputs": [],
      "name": "getAllJewellSell",
      "outputs": [
        {
          "components": [
            {
              "internalType": "string",
              "name": "name",
              "type": "string"
            },
            {
              "internalType": "uint256",
              "name": "id",
              "type": "uint256"
            },
            {
              "internalType": "string",
              "name": "location",
              "type": "string"
            },
            {
              "internalType": "uint8",
              "name": "rarity",
              "type": "uint8"
            },
            {
              "internalType": "uint8",
              "name": "gemslv",
              "type": "uint8"
            },
            {
              "internalType": "address",
              "name": "currentOwner",
              "type": "address"
            },
            {
              "internalType": "address",
              "name": "firstOwner",
              "type": "address"
            },
            {
              "internalType": "uint8",
              "name": "rawId",
              "type": "uint8"
            },
            {
              "internalType": "uint8",
              "name": "gemId",
              "type": "uint8"
            },
            {
              "internalType": "uint256",
              "name": "sell",
              "type": "uint256"
            },
            {
              "internalType": "uint32",
              "name": "sellTime",
              "type": "uint32"
            },
            {
              "internalType": "uint256",
              "name": "gen0",
              "type": "uint256"
            }
          ],
          "internalType": "struct JewellFactory.Jewell[]",
          "name": "",
          "type": "tuple[]"
        }
      ],
      "stateMutability": "view",
      "type": "function",
      "constant": true
    }
  ],
  "bytecode": "0x662386f26fc1000060098190556658d15e17628000600a55600b5566038d7ea4c68000600c55610708600d55610100604052615460608090815261708060a052618ca060c05261a8c060e0526200005b90600f90600462000197565b503480156200006957600080fd5b50604080518082018252600681527f4a6577656c6c000000000000000000000000000000000000000000000000000060208083019182528351808501909452600384527f5446540000000000000000000000000000000000000000000000000000000000908401528151919291620000e4916000916200023a565b508051620000fa9060019060208401906200023a565b505050620001296200011a62000141640100000000026401000000009004565b64010000000062000145810204565b60088054600160a060020a0319163317905562000324565b3390565b60068054600160a060020a03838116600160a060020a0319831681179093556040519116919082907f8be0079c531659141344cd1fd0a4f28419497f9722a3daafe3b4186f6b6457e090600090a35050565b600183019183908215620002285791602002820160005b83821115620001f457835183826101000a81548163ffffffff021916908363ffffffff1602179055509260200192600401602081600301049283019260010302620001ae565b8015620002265782816101000a81549063ffffffff0219169055600401602081600301049283019260010302620001f4565b505b5062000236929150620002b7565b5090565b8280546200024890620002ce565b90600052602060002090601f0160209004810192826200026c576000855562000228565b82601f106200028757805160ff191683800117855562000228565b8280016001018555821562000228579182015b82811115620002285782518255916020019190600101906200029a565b5b80821115620002365760008155600101620002b8565b600281046001821680620002e357607f821691505b602082108114156200031e577f4e487b7100000000000000000000000000000000000000000000000000000000600052602260045260246000fd5b50919050565b6141d480620003346000396000f3fe60806040526004361061024d576000357c010000000000000000000000000000000000000000000000000000000090048063a22cb3931161014b578063d4c0c148116100c8578063e43ca6a01161008c578063e43ca6a014610677578063e985e9c51461068c578063f2fde38b146106ac578063f4812eb9146106cc578063f851a440146106f957600080fd5b8063d4c0c148146105e4578063d96a094a14610604578063dcabd3db14610617578063de33bc6014610637578063e41296a71461065757600080fd5b8063c87b56dd1161010f578063c87b56dd14610544578063ced72f8714610564578063d04fc20f14610579578063d0a8fb7a146105b1578063d4991312146105c457600080fd5b8063a22cb393146104bc578063a22cb465146104d1578063b3de019c146104f1578063b88d4fde14610511578063bbb5e8d31461053157600080fd5b80636352211e116101d957806394a844151161019d57806394a844151461041d57806395d89b41146104305780639c35aed8146104455780639d6fac6f14610467578063a01ce4081461049c57600080fd5b80636352211e1461038a57806370a08231146103aa578063715018a6146103ca5780638da5cb5b146103df5780639012c4a8146103fd57600080fd5b80630b620c1a116102205780630b620c1a1461030357806323b872dd146103225780633ccfd60b1461034257806342842e0e1461034a57806353e76f2c1461036a57600080fd5b806301ffc9a71461025257806306fdde0314610287578063081812fc146102a9578063095ea7b3146102e1575b600080fd5b34801561025e57600080fd5b5061027261026d366004613af7565b610719565b60405190151581526020015b60405180910390f35b34801561029357600080fd5b5061029c6107b6565b60405161027e9190613e64565b3480156102b557600080fd5b506102c96102c4366004613b66565b610848565b604051600160a060020a03909116815260200161027e565b3480156102ed57600080fd5b506103016102fc366004613acd565b61086f565b005b34801561030f57600080fd5b50600b545b60405190815260200161027e565b34801561032e57600080fd5b5061030161033d3660046139d9565b6109ac565b6103016109e0565b34801561035657600080fd5b506103016103653660046139d9565b610a39565b34801561037657600080fd5b50610301610385366004613b7f565b610a54565b34801561039657600080fd5b506102c96103a5366004613b66565b610add565b3480156103b657600080fd5b506103146103c536600461398b565b610b45565b3480156103d657600080fd5b50610301610be2565b3480156103eb57600080fd5b50600654600160a060020a03166102c9565b34801561040957600080fd5b50610301610418366004613b66565b610bf6565b61030161042b366004613c1d565b610c03565b34801561043c57600080fd5b5061029c611312565b34801561045157600080fd5b5061045a611321565b60405161027e9190613d49565b34801561047357600080fd5b50610487610482366004613b66565b611635565b60405163ffffffff909116815260200161027e565b3480156104a857600080fd5b506103016104b7366004613b66565b611665565b3480156104c857600080fd5b50600c54610314565b3480156104dd57600080fd5b506103016104ec366004613a91565b611672565b3480156104fd57600080fd5b5061030161050c366004613bfb565b61167d565b34801561051d57600080fd5b5061030161052c366004613a15565b61176b565b61030161053f366004613bfb565b6117a6565b34801561055057600080fd5b5061029c61055f366004613b66565b61191f565b34801561057057600080fd5b50600a54610314565b34801561058557600080fd5b50610599610594366004613b66565b611993565b60405161027e9c9b9a99989796959493929190613e77565b6103016105bf366004613b31565b611b38565b3480156105d057600080fd5b506103016105df366004613b66565b611e6b565b3480156105f057600080fd5b5061045a6105ff36600461398b565b611f13565b610301610612366004613b66565b6121c8565b34801561062357600080fd5b50610301610632366004613b31565b6123ec565b34801561064357600080fd5b50610301610652366004613b66565b612721565b34801561066357600080fd5b506103016106723660046139d9565b61272e565b34801561068357600080fd5b5061045a6127b2565b34801561069857600080fd5b506102726106a73660046139a6565b6129ca565b3480156106b857600080fd5b506103016106c736600461398b565b6129f8565b3480156106d857600080fd5b506103146106e7366004613b66565b60106020526000908152604090205481565b34801561070557600080fd5b506008546102c990600160a060020a031681565b6000600160e060020a031982167f80ac58cd00000000000000000000000000000000000000000000000000000000148061077c5750600160e060020a031982167f5b5e139f00000000000000000000000000000000000000000000000000000000145b806107b057507f01ffc9a700000000000000000000000000000000000000000000000000000000600160e060020a03198316145b92915050565b6060600080546107c5906140b7565b80601f01602080910402602001604051908101604052809291908181526020018280546107f1906140b7565b801561083e5780601f106108135761010080835404028352916020019161083e565b820191906000526020600020905b81548152906001019060200180831161082157829003601f168201915b5050505050905090565b600061085382612a8b565b50600090815260046020526040902054600160a060020a031690565b600061087a82610add565b905080600160a060020a031683600160a060020a0316141561090c5760405160e560020a62461bcd02815260206004820152602160248201527f4552433732313a20617070726f76616c20746f2063757272656e74206f776e6560448201527f720000000000000000000000000000000000000000000000000000000000000060648201526084015b60405180910390fd5b33600160a060020a0382161480610928575061092881336129ca565b61099d5760405160e560020a62461bcd02815260206004820152603d60248201527f4552433732313a20617070726f76652063616c6c6572206973206e6f7420746f60448201527f6b656e206f776e6572206f7220617070726f76656420666f7220616c6c0000006064820152608401610903565b6109a78383612af2565b505050565b6109b63382612b6d565b6109d55760405160e560020a62461bcd02815260040161090390613f18565b6109a7838383612bcc565b6109e8612d6c565b60006109fc600654600160a060020a031690565b604051909150600160a060020a03821690303180156108fc02916000818181858888f19350505050158015610a35573d6000803e3d6000fd5b5050565b6109a78383836040518060200160405280600081525061176b565b33610a5e84610add565b600160a060020a031614610a7157600080fd5b600060128481548110610a8657610a86614156565b906000526020600020906008020190508060050154600014610aa757600080fd5b828260128681548110610abc57610abc614156565b60009182526020909120610ad69360089092020191613768565b5050505050565b600081815260026020526040812054600160a060020a0316806107b05760405160e560020a62461bcd02815260206004820152601860248201527f4552433732313a20696e76616c696420746f6b656e20494400000000000000006044820152606401610903565b6000600160a060020a038216610bc65760405160e560020a62461bcd02815260206004820152602960248201527f4552433732313a2061646472657373207a65726f206973206e6f74206120766160448201527f6c6964206f776e657200000000000000000000000000000000000000000000006064820152608401610903565b50600160a060020a031660009081526003602052604090205490565b610bea612d6c565b610bf46000612dc9565b565b610bfe612d6c565b600a55565b600b543414610c1157600080fd5b600060128481548110610c2657610c26614156565b90600052602060002090600802019050600060128481548110610c4b57610c4b614156565b9060005260206000209060080201905083851415610c6857600080fd5b33610c7286610add565b600160a060020a031614610c8557600080fd5b33610c8f85610add565b600160a060020a031614610ca257600080fd5b600782015460011015610cb457600080fd5b600781015460011015610cc657600080fd5b600582015415610cd557600080fd5b600581015415610ce457600080fd5b6001808301549082015460038085015490840154604080516101808101909152865460ff938416936101009093049092169183918391600091611092918b9082908290610d30906140b7565b80601f0160208091040260200160405190810160405280929190818152602001828054610d5c906140b7565b8015610da95780601f10610d7e57610100808354040283529160200191610da9565b820191906000526020600020905b815481529060010190602001808311610d8c57829003601f168201915b5050505050815260200160018201548152602001600282018054610dcc906140b7565b80601f0160208091040260200160405190810160405280929190818152602001828054610df8906140b7565b8015610e455780601f10610e1a57610100808354040283529160200191610e45565b820191906000526020600020905b815481529060010190602001808311610e2857829003601f168201915b5050509183525050600382015460ff80821660208401526101008083048216604080860191909152600160a060020a0362010000909404841660608601526004860154938416608086015260a060020a8404831660a086015260a860020a90930490911660c0840152600584015460e0840152600684015463ffffffff169083015260079092015461012090910152805161018081019091528a548b9082908290610eef906140b7565b80601f0160208091040260200160405190810160405280929190818152602001828054610f1b906140b7565b8015610f685780601f10610f3d57610100808354040283529160200191610f68565b820191906000526020600020905b815481529060010190602001808311610f4b57829003601f168201915b5050505050815260200160018201548152602001600282018054610f8b906140b7565b80601f0160208091040260200160405190810160405280929190818152602001828054610fb7906140b7565b80156110045780601f10610fd957610100808354040283529160200191611004565b820191906000526020600020905b815481529060010190602001808311610fe757829003601f168201915b5050509183525050600382015460ff808216602084015261010080830482166040850152600160a060020a0362010000909304831660608501526004850154928316608085015260a060020a8304821660a085015260a860020a9092041660c0830152600583015460e0830152600683015463ffffffff169082015260079091015461012090910152612e28565b90506110a43361dead8960ff16612bcc565b60ff87166000818152601060205260408120819055601280549192909181106110cf576110cf614156565b60009182526020822060089190910201600581019190915560038101805475ffffffffffffffffffffffffffffffffffffffff0000191663dead000017905590506111203361dead60ff8a16612bcc565b60ff871660008181526010602052604081208190556012805491929091811061114b5761114b614156565b60009182526020822060089190910201600581019190915560038101805475ffffffffffffffffffffffffffffffffffffffff0000191663dead000017905590506060602860ff8716116111cf575060408051808201909152600b81527f52696e672042726f6e7a6500000000000000000000000000000000000000000060208201525b60288660ff161180156111e65750603c8660ff1611155b15611221575060408051808201909152600b81527f52696e672053696c76657200000000000000000000000000000000000000000060208201525b603c8660ff161180156112385750605a8660ff1611155b15611273575060408051808201909152600981527f52696e6720476f6c64000000000000000000000000000000000000000000000060208201525b605a8660ff1611156112b5575060408051808201909152600d81527f52696e6720506c6174696e756d0000000000000000000000000000000000000060208201525b6112c4818e88888e8e8a612e7d565b600854600b54604051600160a060020a039092169181156108fc0291906000818181858888f19350505050158015611300573d6000803e3d6000fd5b50505050505050505050505050505050565b6060600180546107c5906140b7565b606060008060005b6012548110156113805760006012828154811061134857611348614156565b906000526020600020906008020160050154111561136e5761136b600183614048565b91505b80611378816140f5565b915050611329565b5060008167ffffffffffffffff81111561139c5761139c61416f565b6040519080825280602002602001820160405280156113d557816020015b6113c26137ec565b8152602001906001900390816113ba5790505b50905060005b60125481101561162d576000601282815481106113fa576113fa614156565b906000526020600020906008020160050154111561161b576012818154811061142557611425614156565b90600052602060002090600802016040518061018001604052908160008201805461144f906140b7565b80601f016020809104026020016040519081016040528092919081815260200182805461147b906140b7565b80156114c85780601f1061149d576101008083540402835291602001916114c8565b820191906000526020600020905b8154815290600101906020018083116114ab57829003601f168201915b50505050508152602001600182015481526020016002820180546114eb906140b7565b80601f0160208091040260200160405190810160405280929190818152602001828054611517906140b7565b80156115645780601f1061153957610100808354040283529160200191611564565b820191906000526020600020905b81548152906001019060200180831161154757829003601f168201915b5050509183525050600382015460ff808216602084015261010080830482166040850152600160a060020a0362010000909304831660608501526004850154928316608085015260a060020a8304821660a085015260a860020a9092041660c0830152600583015460e0830152600683015463ffffffff169082015260079091015461012090910152825183908690811061160157611601614156565b60200260200101819052508380611617906140f5565b9450505b80611625816140f5565b9150506113db565b509392505050565b600f816004811061164557600080fd5b60089182820401919006600402915054906101000a900463ffffffff1681565b61166d612d6c565b600c55565b610a353383836130d3565b600082815260026020526040902054600160a060020a031661169e57600080fd5b600081116116f15760405160e560020a62461bcd02815260206004820152601c60248201527f5072696365206d757374206265206174206c65617374203120776569000000006044820152606401610903565b60006116fc83610add565b9050600160a060020a038116331461171357600080fd5b6000838152601060205260408120839055601280548590811061173857611738614156565b6000918252602090912060089091020160058101939093555050600601805463ffffffff19164263ffffffff1617905550565b6117753383612b6d565b6117945760405160e560020a62461bcd02815260040161090390613f18565b6117a0848484846131a5565b50505050565b6117af82610add565b600160a060020a031633600160a060020a0316146118125760405160e560020a62461bcd02815260206004820152601760248201527f4e6f74206f776e6572206f66207468697320746f6b656e0000000000000000006044820152606401610903565b600c5434101561188c5760405160e560020a62461bcd028152602060048201526024808201527f5072696365206d75737420626520657175616c20746f206c697374696e67207060448201527f72696365000000000000000000000000000000000000000000000000000000006064820152608401610903565b600081116118df5760405160e560020a62461bcd02815260206004820152601c60248201527f5072696365206d757374206265206174206c65617374203120776569000000006044820152606401610903565b6000828152601060205260408120829055601280548490811061190457611904614156565b60009182526020909120600560089092020101919091555050565b606061192a82612a8b565b600061194160408051602081019091526000815290565b90506000815111611961576040518060200160405280600081525061198c565b8061196b846131db565b60405160200161197c929190613c99565b6040516020818303038152906040525b9392505050565b601281815481106119a357600080fd5b90600052602060002090600802016000915090508060000180546119c6906140b7565b80601f01602080910402602001604051908101604052809291908181526020018280546119f2906140b7565b8015611a3f5780601f10611a1457610100808354040283529160200191611a3f565b820191906000526020600020905b815481529060010190602001808311611a2257829003601f168201915b505050505090806001015490806002018054611a5a906140b7565b80601f0160208091040260200160405190810160405280929190818152602001828054611a86906140b7565b8015611ad35780601f10611aa857610100808354040283529160200191611ad3565b820191906000526020600020905b815481529060010190602001808311611ab657829003601f168201915b5050506003840154600485015460058601546006870154600790970154959660ff80851697610100860482169750600160a060020a0362010000909604861696509484169460a060020a850482169460a860020a9004909116929163ffffffff16908c565b33611b4257600080fd5b600a54341015611b5157600080fd5b600754600e8190556103e811611b6657600080fd5b6000611b718261327d565b905060006064611b8361271084614110565b611b8d9190614060565b611b98906001614048565b90506000611ba7606484614110565b611bb2906001614048565b905060608160ff168360ff1610611cef5760288360ff1611611c04575060408051808201909152600c81527f4d6574616c2042726f6e7a65000000000000000000000000000000000000000060208201525b60288360ff16118015611c1b5750603c8360ff1611155b15611c56575060408051808201909152600c81527f4d6574616c2053696c766572000000000000000000000000000000000000000060208201525b603c8360ff16118015611c6d5750605a8360ff1611155b15611ca8575060408051808201909152600a81527f4d6574616c20476f6c640000000000000000000000000000000000000000000060208201525b605a8360ff161115611cea575060408051808201909152600e81527f4d6574616c20506c6174696e756d00000000000000000000000000000000000060208201525b611e16565b60288260ff1611611d30575060408051808201909152600881527f47656d205275626900000000000000000000000000000000000000000000000060208201525b60288260ff16118015611d475750603c8260ff1611155b15611d82575060408051808201909152600981527f47656d20416d626572000000000000000000000000000000000000000000000060208201525b603c8260ff16118015611d995750605a8260ff1611155b15611dd4575060408051808201909152600b81527f47656d20456d6572616c6400000000000000000000000000000000000000000060208201525b605a8260ff161115611e16575060408051808201909152600b81527f47656d204469616d6f6e6400000000000000000000000000000000000000000060208201525b611e27818685856000806000612e7d565b600854600a54604051600160a060020a039092169181156108fc0291906000818181858888f19350505050158015611e63573d6000803e3d6000fd5b505050505050565b611e7481610add565b600160a060020a031633600160a060020a031614611ed75760405160e560020a62461bcd02815260206004820152601760248201527f4e6f74206f776e6572206f66207468697320746f6b656e0000000000000000006044820152606401610903565b60008181526010602052604081208190556012805483908110611efc57611efc614156565b600091825260208220600560089092020101555050565b60606000611f2083610b45565b67ffffffffffffffff811115611f3857611f3861416f565b604051908082528060200260200182016040528015611f7157816020015b611f5e6137ec565b815260200190600190039081611f565790505b5090506000805b6012548110156121bf5784600160a060020a0316611f9582610add565b600160a060020a031614156121ad5760128181548110611fb757611fb7614156565b906000526020600020906008020160405180610180016040529081600082018054611fe1906140b7565b80601f016020809104026020016040519081016040528092919081815260200182805461200d906140b7565b801561205a5780601f1061202f5761010080835404028352916020019161205a565b820191906000526020600020905b81548152906001019060200180831161203d57829003601f168201915b505050505081526020016001820154815260200160028201805461207d906140b7565b80601f01602080910402602001604051908101604052809291908181526020018280546120a9906140b7565b80156120f65780601f106120cb576101008083540402835291602001916120f6565b820191906000526020600020905b8154815290600101906020018083116120d957829003601f168201915b5050509183525050600382015460ff808216602084015261010080830482166040850152600160a060020a0362010000909304831660608501526004850154928316608085015260a060020a8304821660a085015260a860020a9092041660c0830152600583015460e0830152600683015463ffffffff169082015260079091015461012090910152835184908490811061219357612193614156565b602002602001018190525081806121a9906140f5565b9250505b806121b7816140f5565b915050611f78565b50909392505050565b600081815260106020526040902054806122275760405160e560020a62461bcd02815260206004820152601a60248201527f5468697320746f6b656e206973206e6f7420666f722073616c650000000000006044820152606401610903565b8034146122a1576040805160e560020a62461bcd0281526020600482015260248101919091527f506c65617365207375626d6974207468652061736b696e67207072696365206960448201527f6e206f7264657220746f20636f6d706c657465207468652070757263686173656064820152608401610903565b60006122ac83610add565b90506122b9813385612bcc565b600083815260106020526040812081905560128054859081106122de576122de614156565b906000526020600020906008020190506000816005018190555081600160a060020a03166108fc349081150290604051600060405180830381858888f19350505050158015612331573d6000803e3d6000fd5b50600854600c54604051600160a060020a039092169181156108fc0291906000818181858888f1935050505015801561236e573d6000803e3d6000fd5b5060038101805475ffffffffffffffffffffffffffffffffffffffff00001916336201000081029190911790915560408051600160a060020a0385168152602081019290925234908201527f076d19f4d2e8b0b016fad4fef34997dbb03e63bd16e36e18a041a605c7a855429060600160405180910390a150505050565b336123f657600080fd5b6000805b60125481101561243d573361240e82610add565b600160a060020a0316141561242b5781612427816140f5565b9250505b80612435816140f5565b9150506123fa565b506002811061244b57600080fd5b600754600e8190556103e81161246057600080fd5b600061246b8361327d565b90506000606461247d61271084614110565b6124879190614060565b612492906001614048565b905060006124a1606484614110565b6124ac906001614048565b905060608160ff168360ff16106125e95760288360ff16116124fe575060408051808201909152600c81527f4d6574616c2042726f6e7a65000000000000000000000000000000000000000060208201525b60288360ff161180156125155750603c8360ff1611155b15612550575060408051808201909152600c81527f4d6574616c2053696c766572000000000000000000000000000000000000000060208201525b603c8360ff161180156125675750605a8360ff1611155b156125a2575060408051808201909152600a81527f4d6574616c20476f6c640000000000000000000000000000000000000000000060208201525b605a8360ff1611156125e4575060408051808201909152600e81527f4d6574616c20506c6174696e756d00000000000000000000000000000000000060208201525b612710565b60288260ff161161262a575060408051808201909152600881527f47656d205275626900000000000000000000000000000000000000000000000060208201525b60288260ff161180156126415750603c8260ff1611155b1561267c575060408051808201909152600981527f47656d20416d626572000000000000000000000000000000000000000000000060208201525b603c8260ff161180156126935750605a8260ff1611155b156126ce575060408051808201909152600b81527f47656d20456d6572616c6400000000000000000000000000000000000000000060208201525b605a8260ff161115612710575060408051808201909152600b81527f47656d204469616d6f6e6400000000000000000000000000000000000000000060208201525b611e63818785856000806000612e7d565b612729612d6c565b600b55565b612739838383612bcc565b6000818152601060205260408120819055601280548390811061275e5761275e614156565b6000918252602082206005600890920201908101919091556003018054600160a060020a03909416620100000275ffffffffffffffffffffffffffffffffffffffff00001990941693909317909255505050565b60606012805480602002602001604051908101604052809291908181526020016000905b828210156129c157838290600052602060002090600802016040518061018001604052908160008201805461280a906140b7565b80601f0160208091040260200160405190810160405280929190818152602001828054612836906140b7565b80156128835780601f1061285857610100808354040283529160200191612883565b820191906000526020600020905b81548152906001019060200180831161286657829003601f168201915b50505050508152602001600182015481526020016002820180546128a6906140b7565b80601f01602080910402602001604051908101604052809291908181526020018280546128d2906140b7565b801561291f5780601f106128f45761010080835404028352916020019161291f565b820191906000526020600020905b81548152906001019060200180831161290257829003601f168201915b5050509183525050600382015460ff80821660208085019190915261010080840483166040860152600160a060020a0362010000909404841660608601526004860154938416608086015260a060020a8404831660a086015260a860020a90930490911660c0840152600584015460e0840152600684015463ffffffff16918301919091526007909201546101209091015290825260019290920191016127d6565b50505050905090565b600160a060020a03918216600090815260056020908152604080832093909416825291909152205460ff1690565b612a00612d6c565b600160a060020a038116612a7f5760405160e560020a62461bcd02815260206004820152602660248201527f4f776e61626c653a206e6577206f776e657220697320746865207a65726f206160448201527f64647265737300000000000000000000000000000000000000000000000000006064820152608401610903565b612a8881612dc9565b50565b600081815260026020526040902054600160a060020a0316612a885760405160e560020a62461bcd02815260206004820152601860248201527f4552433732313a20696e76616c696420746f6b656e20494400000000000000006044820152606401610903565b6000818152600460205260409020805473ffffffffffffffffffffffffffffffffffffffff1916600160a060020a0384169081179091558190612b3482610add565b600160a060020a03167f8c5be1e5ebec7d5bd14f71427d1e84f3dd0314c0f7b2291e5b200ac8c7c3b92560405160405180910390a45050565b600080612b7983610add565b905080600160a060020a031684600160a060020a03161480612ba05750612ba081856129ca565b80612bc4575083600160a060020a0316612bb984610848565b600160a060020a0316145b949350505050565b82600160a060020a0316612bdf82610add565b600160a060020a031614612c085760405160e560020a62461bcd02815260040161090390613fd2565b600160a060020a038216612c865760405160e560020a62461bcd028152602060048201526024808201527f4552433732313a207472616e7366657220746f20746865207a65726f2061646460448201527f72657373000000000000000000000000000000000000000000000000000000006064820152608401610903565b612c9383838360016132bd565b82600160a060020a0316612ca682610add565b600160a060020a031614612ccf5760405160e560020a62461bcd02815260040161090390613fd2565b6000818152600460209081526040808320805473ffffffffffffffffffffffffffffffffffffffff19908116909155600160a060020a0387811680865260038552838620805460001901905590871680865283862080546001019055868652600290945282852080549092168417909155905184937fddf252ad1be2c89b69c2b068fc378daa952ba7f163c4a11628f55a4df523b3ef91a4505050565b600654600160a060020a03163314610bf45760405160e560020a62461bcd02815260206004820181905260248201527f4f776e61626c653a2063616c6c6572206973206e6f7420746865206f776e65726044820152606401610903565b60068054600160a060020a0383811673ffffffffffffffffffffffffffffffffffffffff19831681179093556040519116919082907f8be0079c531659141344cd1fd0a4f28419497f9722a3daafe3b4186f6b6457e090600090a35050565b60008161016001518361016001511115612e5d5760018361016001818151612e509190614048565b91508181525090506107b0565b60018261016001818151612e719190614048565b90819052949350505050565b6000612e8860075490565b60408051610180810182528a815260208082018490529181018a905260ff808a16606083015288811660808301523360a0830181905260c083015287811660e083015286166101008201526000610120820181905263ffffffff4290811661014084015261016083018790526012805460018101825592528251805195965090949293849360089093027fbb8a6a4669ba250d26cd7a459eca9d215f8307e33aebe50379bc5a3617ec34440192612f429284920190613850565b50602082810151600183015560408301518051612f659260028501920190613850565b506060820151600382018054608085015160a086015160ff94851661ffff199093169290921761010091851682021775ffffffffffffffffffffffffffffffffffffffff0000191662010000600160a060020a03938416021790925560c085015160048501805460e0880151948801519290931674ffffffffffffffffffffffffffffffffffffffffff199093169290921760a060020a938516939093029290921775ff000000000000000000000000000000000000000000191660a860020a9290931691909102919091179055610120820151600582015561014082015160068201805463ffffffff191663ffffffff909216919091179055610160909101516007909101556130763384613345565b613084600780546001019055565b33600160a060020a03167fb6351b97af044cc8739ce7312754b6ebcb15f9ee5b09f18671324966562d8cb6848b6040516130bf92919061402f565b60405180910390a250505050505050505050565b81600160a060020a031683600160a060020a031614156131385760405160e560020a62461bcd02815260206004820152601960248201527f4552433732313a20617070726f766520746f2063616c6c6572000000000000006044820152606401610903565b600160a060020a03838116600081815260056020908152604080832094871680845294825291829020805460ff191686151590811790915591519182527f17307eab39ab6107e8899845ad3d59bd9653f200f220920489ca2b5937696c31910160405180910390a3505050565b6131b0848484612bcc565b6131bc8484848461335f565b6117a05760405160e560020a62461bcd02815260040161090390613f75565b606060006131e8836134a1565b600101905060008167ffffffffffffffff8111156132085761320861416f565b6040519080825280601f01601f191660200182016040528015613232576020820181803683370190505b5090508181016020015b600019017f3031323334353637383961626364656600000000000000000000000000000000600a86061a8153600a85049450846132785761162d565b61323c565b60008042338460405160200161329593929190613cc8565b60408051601f19818403018152919052805160209091012060095490915061198c9082614110565b60018111156117a057600160a060020a0384161561330357600160a060020a038416600090815260036020526040812080548392906132fd908490614074565b90915550505b600160a060020a038316156117a057600160a060020a0383166000908152600360205260408120805483929061333a908490614048565b909155505050505050565b610a35828260405180602001604052806000815250613583565b6000600160a060020a0384163b15613496576040517f150b7a02000000000000000000000000000000000000000000000000000000008152600160a060020a0385169063150b7a02906133bc903390899088908890600401613d0d565b602060405180830381600087803b1580156133d657600080fd5b505af1925050508015613406575060408051601f3d908101601f1916820190925261340391810190613b14565b60015b613463573d808015613434576040519150601f19603f3d011682016040523d82523d6000602084013e613439565b606091505b50805161345b5760405160e560020a62461bcd02815260040161090390613f75565b805181602001fd5b600160e060020a0319167f150b7a0200000000000000000000000000000000000000000000000000000000149050612bc4565b506001949350505050565b6000807a184f03e93ff9f4daa797ed6e38ed64bf6a1f01000000000000000083106134ea577a184f03e93ff9f4daa797ed6e38ed64bf6a1f010000000000000000830492506040015b6d04ee2d6d415b85acef81000000008310613516576d04ee2d6d415b85acef8100000000830492506020015b662386f26fc10000831061353457662386f26fc10000830492506010015b6305f5e100831061354c576305f5e100830492506008015b612710831061356057612710830492506004015b60648310613572576064830492506002015b600a83106107b05760010192915050565b61358d83836135b9565b61359a600084848461335f565b6109a75760405160e560020a62461bcd02815260040161090390613f75565b600160a060020a0382166136125760405160e560020a62461bcd02815260206004820181905260248201527f4552433732313a206d696e7420746f20746865207a65726f20616464726573736044820152606401610903565b600081815260026020526040902054600160a060020a03161561367a5760405160e560020a62461bcd02815260206004820152601c60248201527f4552433732313a20746f6b656e20616c7265616479206d696e746564000000006044820152606401610903565b6136886000838360016132bd565b600081815260026020526040902054600160a060020a0316156136f05760405160e560020a62461bcd02815260206004820152601c60248201527f4552433732313a20746f6b656e20616c7265616479206d696e746564000000006044820152606401610903565b600160a060020a0382166000818152600360209081526040808320805460010190558483526002909152808220805473ffffffffffffffffffffffffffffffffffffffff19168417905551839291907fddf252ad1be2c89b69c2b068fc378daa952ba7f163c4a11628f55a4df523b3ef908290a45050565b828054613774906140b7565b90600052602060002090601f01602090048101928261379657600085556137dc565b82601f106137af5782800160ff198235161785556137dc565b828001600101855582156137dc579182015b828111156137dc5782358255916020019190600101906137c1565b506137e89291506138c4565b5090565b6040805161018081018252606080825260006020830181905292820181905281018290526080810182905260a0810182905260c0810182905260e0810182905261010081018290526101208101829052610140810182905261016081019190915290565b82805461385c906140b7565b90600052602060002090601f01602090048101928261387e57600085556137dc565b82601f1061389757805160ff19168380011785556137dc565b828001600101855582156137dc579182015b828111156137dc5782518255916020019190600101906138a9565b5b808211156137e857600081556001016138c5565b600067ffffffffffffffff808411156138f4576138f461416f565b604051601f8501601f19908116603f0116810190828211818310171561391c5761391c61416f565b8160405280935085815286868601111561393557600080fd5b858560208301376000602087830101525050509392505050565b8035600160a060020a038116811461396657600080fd5b919050565b600082601f83011261397c57600080fd5b61198c838335602085016138d9565b60006020828403121561399d57600080fd5b61198c8261394f565b600080604083850312156139b957600080fd5b6139c28361394f565b91506139d06020840161394f565b90509250929050565b6000806000606084860312156139ee57600080fd5b6139f78461394f565b9250613a056020850161394f565b9150604084013590509250925092565b60008060008060808587031215613a2b57600080fd5b613a348561394f565b9350613a426020860161394f565b925060408501359150606085013567ffffffffffffffff811115613a6557600080fd5b8501601f81018713613a7657600080fd5b613a85878235602084016138d9565b91505092959194509250565b60008060408385031215613aa457600080fd5b613aad8361394f565b915060208301358015158114613ac257600080fd5b809150509250929050565b60008060408385031215613ae057600080fd5b613ae98361394f565b946020939093013593505050565b600060208284031215613b0957600080fd5b813561198c81614188565b600060208284031215613b2657600080fd5b815161198c81614188565b600060208284031215613b4357600080fd5b813567ffffffffffffffff811115613b5a57600080fd5b612bc48482850161396b565b600060208284031215613b7857600080fd5b5035919050565b600080600060408486031215613b9457600080fd5b83359250602084013567ffffffffffffffff80821115613bb357600080fd5b818601915086601f830112613bc757600080fd5b813581811115613bd657600080fd5b876020828501011115613be857600080fd5b6020830194508093505050509250925092565b60008060408385031215613c0e57600080fd5b50508035926020909101359150565b600080600060608486031215613c3257600080fd5b8335925060208401359150604084013567ffffffffffffffff811115613c5757600080fd5b613c638682870161396b565b9150509250925092565b60008151808452613c8581602086016020860161408b565b601f01601f19169290920160200192915050565b60008351613cab81846020880161408b565b835190830190613cbf81836020880161408b565b01949350505050565b8381526c01000000000000000000000000600160a060020a03841602602082015260008251613cfe81603485016020870161408b565b91909101603401949350505050565b6000600160a060020a03808716835280861660208401525083604083015260806060830152613d3f6080830184613c6d565b9695505050505050565b60208082528251828201819052600091906040908185019080840286018301878501865b83811015613e5657603f1989840301855281516101808151818652613d9482870182613c6d565b91505088820151898601528782015185820389870152613db48282613c6d565b915050606080830151613dcb8288018260ff169052565b505060808281015160ff9081169187019190915260a080840151600160a060020a039081169188019190915260c0808501519091169087015260e080840151821690870152610100808401519091169086015261012080830151908601526101408083015163ffffffff16908601526101609182015191909401529386019390860190600101613d6d565b509098975050505050505050565b60208152600061198c6020830184613c6d565b61018081526000613e8c61018083018f613c6d565b8d60208401528281036040840152613ea4818e613c6d565b60ff8d811660608601528c81166080860152600160a060020a038c811660a08701528b1660c086015289811660e086015288166101008501529150613ee69050565b84610120830152613f0061014083018563ffffffff169052565b826101608301529d9c50505050505050505050505050565b6020808252602d908201527f4552433732313a2063616c6c6572206973206e6f7420746f6b656e206f776e6560408201527f72206f7220617070726f76656400000000000000000000000000000000000000606082015260800190565b60208082526032908201527f4552433732313a207472616e7366657220746f206e6f6e20455243373231526560408201527f63656976657220696d706c656d656e7465720000000000000000000000000000606082015260800190565b60208082526025908201527f4552433732313a207472616e736665722066726f6d20696e636f72726563742060408201527f6f776e6572000000000000000000000000000000000000000000000000000000606082015260800190565b828152604060208201526000612bc46040830184613c6d565b6000821982111561405b5761405b614124565b500190565b60008261406f5761406f61413d565b500490565b60008282101561408657614086614124565b500390565b60005b838110156140a657818101518382015260200161408e565b838111156117a05750506000910152565b6002810460018216806140cb57607f821691505b602082108114156140ef5760e060020a634e487b7102600052602260045260246000fd5b50919050565b600060001982141561410957614109614124565b5060010190565b60008261411f5761411f61413d565b500690565b60e060020a634e487b7102600052601160045260246000fd5b60e060020a634e487b7102600052601260045260246000fd5b60e060020a634e487b7102600052603260045260246000fd5b60e060020a634e487b7102600052604160045260246000fd5b600160e060020a031981168114612a8857600080fdfea2646970667358221220682b1380201f57d1deaa68def135123328d7c5b6db5a61bdb09df327b4dbe97264736f6c63430008070033",
  "immutableReferences": {},
  "source": "// SPDX-License-Identifier: MIT\n\npragma solidity ^0.8.0;\n\nimport \"@openzeppelin/contracts/token/ERC721/ERC721.sol\";\nimport \"@openzeppelin/contracts/access/Ownable.sol\";\nimport \"@openzeppelin/contracts/utils/Counters.sol\";\n\ncontract JewellFactory is ERC721, Ownable {\n    using Counters for Counters.Counter;\n    using Strings for uint256;\n    Counters.Counter _tokenIds;\n\n    address public admin;\n    uint256 SERI_MOD = 10**16;\n    uint256 fee = 0.025 ether;\n    uint256 forgeFee = 0.01 ether;\n    uint256 sellFee = 0.001 ether;\n    uint256 lostTime = 30 minutes;\n    uint256 quantilyLimit;\n    uint32[4] public cooldowns = [\n        uint32(6 hours),\n        uint32(8 hours),\n        uint32(10 hours),\n        uint32(12 hours)\n    ];\n\n    mapping(uint256 => uint256) public tokenIdToPrice;\n    mapping(uint256 => string) _tokenURIs;\n\n    constructor() ERC721(\"Jewell\", \"TFT\") {\n        admin = msg.sender;\n    }\n\n    struct Jewell {\n        string name;\n        uint256 id;\n        string location;\n        uint8 rarity;\n        uint8 gemslv;\n        address currentOwner;\n        address firstOwner;\n        uint8 rawId;\n        uint8 gemId;\n        uint256 sell;\n        uint32 sellTime;\n        uint256 gen0;\n    }\n\n    Jewell[] public jewells;\n\n    event NewJewell(address indexed owner, uint256 id, string location);\n    event BuyJewell(address _seller, address _buyer, uint256 _price);\n\n    function getFee() public view returns (uint256) {\n        return fee;\n    }\n\n    function getFeeForge() public view returns (uint256) {\n        return forgeFee;\n    }\n\n    function getFeeSell() public view returns (uint256) {\n        return sellFee;\n    }\n\n    function _createRandomSeri(string memory _mod)\n        internal\n        view\n        returns (uint256)\n    {\n        uint256 randomNum = uint256(\n            keccak256(abi.encodePacked(block.timestamp, msg.sender, _mod))\n        );\n        return randomNum % SERI_MOD;\n    }\n\n    function _createJewell(\n        string memory _name,\n        string memory _location,\n        uint8 _rarity,\n        uint8 _gemslv,\n        uint8 _rawId,\n        uint8 _gemId,\n        uint256 _gen0\n    ) internal {\n        uint256 newId = _tokenIds.current();\n\n        uint32 time = uint32(block.timestamp);\n\n        Jewell memory newJewell = Jewell(\n            _name,\n            newId,\n            _location,\n            _rarity,\n            _gemslv,\n            msg.sender,\n            msg.sender,\n            _rawId,\n            _gemId,\n            0,\n            time,\n            _gen0\n        );\n        jewells.push(newJewell);\n        _safeMint(msg.sender, newId);\n        _tokenIds.increment();\n\n        emit NewJewell(msg.sender, newId, _location);\n    }\n\n    function createRandomJewellFree(string memory _location) public {\n        require(msg.sender != address(0));\n        uint256 counter = 0;\n        for (uint256 i = 0; i < jewells.length; i++) {\n            if (ownerOf(i) == msg.sender) {\n                counter++;\n            }\n        }\n        require(counter < 2);\n        quantilyLimit = _tokenIds.current();\n        require(quantilyLimit < 1000);\n        uint256 Seri = _createRandomSeri(_location);\n        uint8 newRarity = uint8((Seri % 10000) / 100 + 1);\n        uint8 newGemslv = uint8((Seri % 100) + 1);\n        string memory newname;\n        if (newRarity >= newGemslv) {\n            if (newRarity <= 40) {\n                newname = \"Metal Bronze\";\n            }\n            if (newRarity > 40 && newRarity <= 60) {\n                newname = \"Metal Silver\";\n            }\n            if (newRarity > 60 && newRarity <= 90) {\n                newname = \"Metal Gold\";\n            }\n            if (newRarity > 90) {\n                newname = \"Metal Platinum\";\n            }\n        } else {\n            if (newGemslv <= 40) {\n                newname = \"Gem Rubi\";\n            }\n            if (newGemslv > 40 && newGemslv <= 60) {\n                newname = \"Gem Amber\";\n            }\n            if (newGemslv > 60 && newGemslv <= 90) {\n                newname = \"Gem Emerald\";\n            }\n            if (newGemslv > 90) {\n                newname = \"Gem Diamond\";\n            }\n        }\n        _createJewell(newname, _location, newRarity, newGemslv, 0, 0, 0);\n    }\n\n    function createRandomJewell(string memory _location) public payable {\n        require(msg.sender != address(0));\n        require(msg.value >= fee);\n        quantilyLimit = _tokenIds.current();\n        require(quantilyLimit < 1000);\n        uint256 Seri = _createRandomSeri(_location);\n        uint8 newRarity = uint8((Seri % 10000) / 100 + 1);\n        uint8 newGemslv = uint8((Seri % 100) + 1);\n        string memory newname;\n        if (newRarity >= newGemslv) {\n            if (newRarity <= 40) {\n                newname = \"Metal Bronze\";\n            }\n            if (newRarity > 40 && newRarity <= 60) {\n                newname = \"Metal Silver\";\n            }\n            if (newRarity > 60 && newRarity <= 90) {\n                newname = \"Metal Gold\";\n            }\n            if (newRarity > 90) {\n                newname = \"Metal Platinum\";\n            }\n        } else {\n            if (newGemslv <= 40) {\n                newname = \"Gem Rubi\";\n            }\n            if (newGemslv > 40 && newGemslv <= 60) {\n                newname = \"Gem Amber\";\n            }\n            if (newGemslv > 60 && newGemslv <= 90) {\n                newname = \"Gem Emerald\";\n            }\n            if (newGemslv > 90) {\n                newname = \"Gem Diamond\";\n            }\n        }\n        _createJewell(newname, _location, newRarity, newGemslv, 0, 0, 0);\n        payable(admin).transfer(fee);\n    }\n\n    function getJewell() public view returns (Jewell[] memory) {\n        return jewells;\n    }\n\n    function getOwnerJewells(address _owner)\n        public\n        view\n        returns (Jewell[] memory)\n    {\n        Jewell[] memory result = new Jewell[](balanceOf(_owner));\n        uint256 counter = 0;\n        for (uint256 i = 0; i < jewells.length; i++) {\n            if (ownerOf(i) == _owner) {\n                result[counter] = jewells[i];\n                counter++;\n            }\n        }\n        return result;\n    }\n\n    function updateFee(uint256 _fee) external onlyOwner {\n        fee = _fee;\n    }\n\n    function updateFeeForge(uint256 _FeeForge) external onlyOwner {\n        forgeFee = _FeeForge;\n    }\n\n    function updateFeeSell(uint256 _feeSell) external onlyOwner {\n        sellFee = _feeSell;\n    }\n\n    function withdraw() external payable onlyOwner {\n        address payable _owner = payable(owner());\n        _owner.transfer(address(this).balance);\n    }\n\n    function updateName(uint256 _JewellId, string calldata _newName) external {\n        require(ownerOf(_JewellId) == msg.sender);\n        Jewell storage jewell = jewells[_JewellId];\n        require(jewell.sell == 0);\n        jewells[_JewellId].name = _newName;\n    }\n\n    function _getJewellGen(Jewell memory _rawId, Jewell memory _gemId)\n        internal\n        view\n        returns (uint256)\n    {\n        if (_rawId.gen0 > _gemId.gen0) {\n            return _rawId.gen0 += 1;\n        }\n        return _gemId.gen0 += 1;\n    }\n\n    function _isReady(Jewell storage _jewell) internal view returns (bool) {\n        return (_jewell.gen0 <= 1);\n    }\n\n    function Forging(\n        uint256 _rawID,\n        uint256 _gemID,\n        string memory _location\n    ) public payable {\n        require(msg.value == forgeFee);\n        Jewell storage myRaw = jewells[_rawID];\n        Jewell storage myGem = jewells[_gemID];\n        require(_rawID != _gemID);\n        require(ownerOf(_rawID) == msg.sender);\n        require(ownerOf(_gemID) == msg.sender);\n        require(_isReady(myRaw));\n        require(_isReady(myGem));\n        require(myRaw.sell == 0);\n        require(myGem.sell == 0);\n\n        uint8 rawId = uint8(myRaw.id);\n        uint8 gemId = uint8(myGem.id);\n\n        uint256 rawRarity = uint256(myRaw.rarity);\n        uint256 gemRarity = uint256(myGem.gemslv);\n        uint8 newRarity = uint8(rawRarity);\n        uint8 newGemslv = uint8(gemRarity);\n        uint256 newGen = _getJewellGen(myRaw, myGem);\n\n        _transfer(\n            msg.sender,\n            0x000000000000000000000000000000000000dEaD,\n            rawId\n        );\n        tokenIdToPrice[rawId] = 0; // not for sale anymore\n        Jewell storage rawItem = jewells[rawId];\n        rawItem.sell = 0;\n        // update the token's previous owner\n        // update the token's current owner\n        rawItem.currentOwner = 0x000000000000000000000000000000000000dEaD;\n        _transfer(\n            msg.sender,\n            0x000000000000000000000000000000000000dEaD,\n            gemId\n        );\n        tokenIdToPrice[gemId] = 0; // not for sale anymore\n        Jewell storage gemItem = jewells[gemId];\n        gemItem.sell = 0;\n        // update the token's previous owner\n        // update the token's current owner\n        gemItem.currentOwner = 0x000000000000000000000000000000000000dEaD;\n        string memory forgeName;\n        if (newRarity <= 40) {\n            forgeName = \"Ring Bronze\";\n        }\n        if (newRarity > 40 && newRarity <= 60) {\n            forgeName = \"Ring Silver\";\n        }\n        if (newRarity > 60 && newRarity <= 90) {\n            forgeName = \"Ring Gold\";\n        }\n        if (newRarity > 90) {\n            forgeName = \"Ring Platinum\";\n        }\n        _createJewell(\n            forgeName,\n            _location,\n            newRarity,\n            newGemslv,\n            rawId,\n            gemId,\n            newGen\n        );\n        payable(admin).transfer(forgeFee);\n    }\n\n    function GiftToken(\n        address _from,\n        address _to,\n        uint256 _tokenId\n    ) external {\n        _transfer(_from, _to, _tokenId);\n        tokenIdToPrice[_tokenId] = 0; // not for sale anymore\n        Jewell storage myJewell = jewells[_tokenId];\n        myJewell.sell = 0;\n\n        // update the token's previous owner\n        // update the token's current owner\n        myJewell.currentOwner = _to;\n    }\n\n    function allowBuy(uint256 _tokenId, uint256 _price) external payable {\n        require(msg.sender == ownerOf(_tokenId), \"Not owner of this token\");\n        require(msg.value >= sellFee, \"Price must be equal to listing price\");\n        require(_price > 0, \"Price must be at least 1 wei\");\n        // Jewell storage myTokenID = jewells[_tokenId];\n        // require(_isReady(myTokenID), \"Forge not reedy\");\n        tokenIdToPrice[_tokenId] = _price;\n        Jewell storage myJewell = jewells[_tokenId];\n        myJewell.sell = _price;\n    }\n\n    function disallowBuy(uint256 _tokenId) external {\n        require(msg.sender == ownerOf(_tokenId), \"Not owner of this token\");\n        tokenIdToPrice[_tokenId] = 0;\n        Jewell storage myJewell = jewells[_tokenId];\n        myJewell.sell = 0;\n    }\n\n    function buy(uint256 _tokenId) external payable {\n        uint256 price = tokenIdToPrice[_tokenId];\n        require(price > 0, \"This token is not for sale\");\n        require(\n            msg.value == price,\n            \"Please submit the asking price in order to complete the purchase\"\n        );\n\n        address seller = ownerOf(_tokenId);\n\n        _transfer(seller, msg.sender, _tokenId);\n        tokenIdToPrice[_tokenId] = 0; // not for sale anymore\n        Jewell storage myJewell = jewells[_tokenId];\n        myJewell.sell = 0;\n        payable(seller).transfer(msg.value); // send the ETH to the seller\n        payable(admin).transfer(sellFee);\n        // update the token's current owner\n        myJewell.currentOwner = msg.sender;\n\n        emit BuyJewell(seller, msg.sender, msg.value);\n    }\n\n    function changePrice(uint256 _tokenId, uint256 _newPrice) external {\n        require(_exists(_tokenId));\n        require(_newPrice > 0, \"Price must be at least 1 wei\");\n        address seller = ownerOf(_tokenId);\n        require(seller == msg.sender);\n        tokenIdToPrice[_tokenId] = _newPrice;\n        Jewell storage myJewell = jewells[_tokenId];\n        myJewell.sell = _newPrice;\n        myJewell.sellTime = uint32(block.timestamp);\n    }\n\n    function getAllJewellSell() public view returns (Jewell[] memory) {\n        uint256 counter = 0;\n        uint256 itemCount = 0;\n        for (uint256 i = 0; i < jewells.length; i++) {\n            if (jewells[i].sell > 0) {\n                itemCount += 1;\n            }\n        }\n        Jewell[] memory jewellSell = new Jewell[](itemCount);\n        for (uint256 i = 0; i < jewells.length; i++) {\n            if (jewells[i].sell > 0) {\n                jewellSell[counter] = jewells[i];\n                counter++;\n            }\n        }\n        return jewellSell;\n    }\n}\n",
  "sourcePath": "C:\\Users\\ASUS\\Desktop\\setname\\New folder\\jewell-market-dapp\\contracts\\JewellFactory.sol",
  "compiler": {
    "name": "solc",
    "version": "0.8.7+commit.e28d00a7.Emscripten.clang"
  },
  "schemaVersion": "3.4.10",
  "updatedAt": "2022-11-29T08:04:07.169Z",
  "networkType": "ethereum",
  "devdoc": {
    "kind": "dev",
    "methods": {
      "approve(address,uint256)": {
        "details": "See {IERC721-approve}."
      },
      "balanceOf(address)": {
        "details": "See {IERC721-balanceOf}."
      },
      "getApproved(uint256)": {
        "details": "See {IERC721-getApproved}."
      },
      "isApprovedForAll(address,address)": {
        "details": "See {IERC721-isApprovedForAll}."
      },
      "name()": {
        "details": "See {IERC721Metadata-name}."
      },
      "owner()": {
        "details": "Returns the address of the current owner."
      },
      "ownerOf(uint256)": {
        "details": "See {IERC721-ownerOf}."
      },
      "renounceOwnership()": {
        "details": "Leaves the contract without owner. It will not be possible to call `onlyOwner` functions anymore. Can only be called by the current owner. NOTE: Renouncing ownership will leave the contract without an owner, thereby removing any functionality that is only available to the owner."
      },
      "safeTransferFrom(address,address,uint256)": {
        "details": "See {IERC721-safeTransferFrom}."
      },
      "safeTransferFrom(address,address,uint256,bytes)": {
        "details": "See {IERC721-safeTransferFrom}."
      },
      "setApprovalForAll(address,bool)": {
        "details": "See {IERC721-setApprovalForAll}."
      },
      "supportsInterface(bytes4)": {
        "details": "See {IERC165-supportsInterface}."
      },
      "symbol()": {
        "details": "See {IERC721Metadata-symbol}."
      },
      "tokenURI(uint256)": {
        "details": "See {IERC721Metadata-tokenURI}."
      },
      "transferFrom(address,address,uint256)": {
        "details": "See {IERC721-transferFrom}."
      },
      "transferOwnership(address)": {
        "details": "Transfers ownership of the contract to a new account (`newOwner`). Can only be called by the current owner."
      }
    },
    "version": 1
  },
  "userdoc": {
    "kind": "user",
    "methods": {},
    "version": 1
  }
}